:020000040800F2
:10000000F834002039020008A30D0008C50C0008D0
:10001000A10D0008B9030008A90F000800000000A6
:10002000000000000000000000000000A90D000812
:10003000BB03000800000000A50D0008AD0D00087E
:10004000530200085302000853020008530200083C
:10005000530200085302000853020008530200082C
:10006000530200085302000853020008530200081C
:10007000530200085302000853020008530200080C
:100080005302000853020008530200080000000059
:100090000000000000000000000000005302000803
:1000A00053020008530200085302000853020008DC
:1000B00053020008530200085302000853020008CC
:1000C00053020008530200085302000853020008BC
:1000D0005302000853020008530200080000000009
:1000E00053020008530200085302000800000000F9
:1000F00000000000000000000000000053020008A3
:1001000000000000530200085302000853020008D8
:1001100000000000000000000000000000000000DF
:10012000530200085302000853020008530200085B
:100130005302000800000000000000000000000062
:100140000000000000000000000000005302000852
:10015000530200085302000853020008530200082B
:1001600053020008530200080000000000000000D5
:10017000000000000000000000000000000000007F
:100180000000000053020008000000000000000012
:1001900053020008DFF80CD000F0D4F80048004704
:1001A0007D100008F834002006480068006880F3DD
:1001B000088862B661B6BFF34F8FBFF36F8F00DF61
:1001C00000BF00BF08ED00E0074B19680868B0E801
:1001D000F00F80F30988BFF36F8F4FF0000080F3BA
:1001E00011884EF00D0E704718000020EFF30980C3
:1001F000BFF36F8F0F4B1A6820E9F00F106008B53E
:100200004FF0BF0080F31188BFF34F8FBFF36F8FA4
:1002100001F08EF84FF0000080F31188BDE808402F
:1002200019680868B0E8F00F80F30988BFF36F8F92
:10023000704700BF18000020064880470648004766
:10024000FEE7FEE7FEE7FEE7FEE7FEE7FEE7FEE786
:10025000FEE7FEE7390E0008950100082DE9F05F82
:100260000546002092469B46884606468146402425
:100270001BE0284641464746224600F053F85346C5
:100280005A46C01A914110D311461846224600F032
:100290003AF82D1A67EB01084F462246012000214B
:1002A00000F031F817EB00094E41201EA4F10104C3
:1002B000DFDC484631462A464346BDE8F09F40EA27
:1002C00001039B0703D009E008C9121F08C0042AD4
:1002D000FAD203E011F8013B00F8013B521EF9D2BB
:1002E0007047D2B201E000F8012B491EFBD27047E3
:1002F0000022F6E710B513460A4604461946FFF7F2
:10030000F0FF204610BD202A04DB203A00FA02F15B
:10031000002070479140C2F1200320FA03F31943F3
:1003200090407047202A04DB203A21FA02F0002195
:10033000704721FA02F3D040C2F1200291400843F5
:1003400019467047064C074D06E0E06840F001038F
:1003500094E8070098471034AC42F6D3FFF71EFF2D
:10036000EC1300080C14000870B5124C0546A66981
:10037000A068001D00F07CFF38B9A06890F830102C
:1003800001208840616881436160A0683544B542BE
:100390004560A16805D2A06ABDE87040091D00F063
:1003A00086BF606A091D00F082FFE069854200D2C5
:1003B000E56170BD10000020FEE77047BF2080F3AC
:1003C0001188BFF34F8FBFF36F8F02484169491CFB
:1003D000416170471000002003494869401E486190
:1003E00001D180F311887047100000202DE9F84FEB
:1003F00000224FF0010803254FF00F0E0B6808FA9A
:1004000002F42340A34271D14E68012E05D0022E82
:1004100003D0112E01D0122E15D18668570005FA8F
:1004200007FC26EA0C06D1F80CC00CFA07FC4CEAD3
:10043000060CC0F808C04668A6430C79C4F3001443
:10044000944034434460C668570005FA07FC8C6842
:1004500026EA0C06BC403443C4604C68022C01D030
:10046000122C13D1D40800EB8404A346D4F82090B6
:1004700054074FEAD46A0EFA0AF629EA06090E6909
:1004800006FA0AF646EA0906CBF8206004680E79F7
:1004900024EA0C0406F00306BE40264306604C68BE
:1004A000E40056D52E4C266846F480462660246823
:1004B00022F0030604F4804400942A4C3444A446F9
:1004C000D4F808489607370F0EFA07F6B443264EBD
:1004D000B04201D1002615E0244EB04201D10126E0
:1004E00010E0234EB04202D102260BE031E0214E53
:1004F000B04201D1032605E01F4EB04201D10426CF
:1005000000E00726BE402643CCF808681B4E34683E
:100510004F689C43FF0300D51C433460174E361DC3
:1005200034684F689C43BF0300D51C433460134EAE
:10053000083634684F689C43FF0200D51C43346082
:100540000E4E0C3634684F689C43BF0200D51C43E6
:100550003460521C102AFFF451AFBDE8F88F000040
:1005600044380240003001400000024000040240D4
:1005700000080240000C024000100240003C014014
:100580000AB1816170470904FBE7000001488068F7
:1005900070470000000000200B4810B5016841F4CE
:1005A00000710160016841F480610160016841F4FB
:1005B00080710160032000F061F8002000F006F86F
:1005C00000F024F8002010BD003C024070B50D4D35
:1005D00004464FF47A712878B1FBF0F00A490968B3
:1005E000B1FBF0F000F0F4FA48B9102C07D2002269
:1005F0002146501E00F022F800206C6070BD0120E2
:1006000070BD0000000000200C0000200A4808B562
:10061000016841F480410160006800F4804000906E
:100620000548001F016841F080510160006800F03A
:100630008050009008BD000044380240F0B40E4BDA
:100640001B680C46C3F30223C3F10705042D00D930
:100650000425191D072901D2002300E0DB1E012615
:1006600006FA05F1491E214099409E40761E16402B
:100670003143F0BC00F099BC0CED00E0064900F0FD
:10068000070208684FF6FF03184040EA0220034AB9
:1006900010430860704700000CED00E00000FA0510
:1006A0002DE9F0470E46050065D0DFF81481D8F833
:1006B0000000F7B200F00F00B04207D288F80070D7
:1006C000D8F8000000F00F00B04254D128683D4C2B
:1006D000810712D5400703D5206840F4E050206020
:1006E0002878000703D5206840F460402060206827
:1006F000A96820F0F000084320602878C0072DD0BA
:10070000304968680839012812D0022813D003281C
:1007100011D00968890700292DDA216821F0030129
:1007200001432160FFF732FF814641F2883A0EE033
:1007300009688903EFE709688901ECE7FFF726FFFD
:10074000A0EB0901514502D90320BDE8F0872068DC
:10075000696800F00C00B0EB810FEFD1D8F8001001
:10076000404601F00F01B14207D90770006800F060
:100770000F00B04201D00120E7E72878400705D5F7
:100780002068E96820F4E0500843206028780007DA
:1007900006D52068296920F4604040EAC100206045
:1007A00000F038F82168084AC1F30311515CC840D1
:1007B0000649086006480068FFF708FF0020C4E704
:1007C000003C024008380240D41300080C0000200E
:1007D000040000200448054900680968044AC1F380
:1007E0008221515CC84070470C000020083802404C
:1007F000E41300080448054900680968044AC1F385
:100800004231515CC84070470C000020083802405B
:10081000E4130008154810B5006810F00C021448E5
:1008200013D04110042A0FD0082A0ED10F4C241FD8
:100830002268236802F03F025B0207D52068C0F3FC
:100840008810A0FB010106E0084610BD2168C1F335
:100850008811A1FB00010023FFF700FD2168C1F30F
:100860000141491C4900B0FBF1F010BD08380240BD
:100870000024F4002DE9F84F040076D02078DFF84A
:1008800038A3CE4DC00749D0DAF800105046C1F366
:100890008101012908D00068C0F3810002280AD133
:1008A000281D0068400206D52868800336D5606898
:1008B0000028E2D032E06068B0F5803F10D0B0F59B
:1008C000A02F286810D020F480302860286820F4F9
:1008D000802028606068A0B1FFF758FE06460CE053
:1008E000286840F48030F4E740F480202860F7E77F
:1008F000FFF74CFE801B642873D828688003F7D567
:100900000CE0FFF743FE064605E000BFFFF73EFEA2
:10091000801B6428F0D828688003F7D42078DFF89B
:10092000A08280074FF000093ED5DAF8001050464B
:1009300011F00C0F09D00068C0F3810002280BD120
:100940009D48001F0068400206D42868800715D51E
:10095000E068012809D111E0E068B8B10120C8F8C9
:100960000000FFF713FE064605E020E1FFF70EFE4C
:10097000801B0228C0D828688007F7D5286821691D
:1009800020F0F80040EAC10028600DE0C8F80090AF
:10099000FFF7FCFD064604E0FFF7F8FD801B022888
:1009A0001FD828688007F7D42078000722D5824E08
:1009B000844861696C3671B101210160FFF7E6FD81
:1009C000074604E0FFF7E2FDC01B022809D83068A3
:1009D0008007F7D50EE0C0F80090FFF7D7FD074677
:1009E00005E082E0FFF7D2FDC01B02287DD8306809
:1009F0008007F7D42078400768D5DFF8BCB100271E
:100A00000BF1380BDBF80000C0000BD4DBF8001052
:100A100041F08051CBF80010DBF80000012700F016
:100A200080500090684E3068C00510D4306840F4A3
:100A300080703060FFF7AAFD009005E0FFF7A6FD8B
:100A40000099401A022850D83068C005F6D55A4E91
:100A5000A068683601280FD00528306810D020F033
:100A600001003060306820F004003060A068B8B148
:100A7000FFF78CFD00900FE0306840F00100F4E7D4
:100A800040F004003060F7E7FFF780FD0099411A5D
:100A900041F28830814266D830688007F4D50EE094
:100AA000FFF774FD009007E0FFF770FD0099411A11
:100AB00041F28830814256D830688007F4D42FB193
:100AC000DBF8001021F08051CBF80010A069D0B302
:100AD000DAF800205146C2F38102022A4AD00228E5
:100AE000484607D0C8F8600000E03CE0FFF74EFD44
:100AF00004463BE04746C8F86000FFF747FD06465E
:100B000005E000BFFFF742FD801B02282BD82868B4
:100B10008001F7D4D4E907010843A16A2B4A4908A8
:100B200002EB0141626A41EA8211084394F82C10F9
:100B300040EA01612048001F016001203866FFF78C
:100B400025FD044605E034E0FFF720FD001B0228E8
:100B500009D828688001F7D52BE000BFFFF716FD04
:100B6000001B022802D90320BDE8F88F2868800105
:100B7000F4D41EE00128F7D00868E26900F480018F
:100B8000914214D1226A00F03F0191420FD147F601
:100B9000C071626A0140914209D1A26A00F44031F9
:100BA000914204D1E16A00F07060884201D00120D6
:100BB000DAE70020D8E70000083802400038024099
:100BC00000004742800E4742007000400000FFFFD7
:100BD00010B5401EB0F1807F01D3012010BD4FF051
:100BE000E02460610F21601700F0DFF90020A061B0
:100BF00007202061002010BD70B5040004D094F8D7
:100C00003900002510B106E0012070BD84F838508D
:100C1000204600F023F8242084F839002068C168B9
:100C200021F40051C160204600F02AF920680169D2
:100C300021F4904101612068416921F02A0141615C
:100C40002068C16841F40051C160E563202084F848
:100C5000390084F83A00002070BD000010B586B05D
:100C6000044614216846FFF743FB13492068884275
:100C70001FD112480021026842F40032026000686D
:100C800000F4003005900D481038026842F001026F
:100C90000260006800F0010005900C200090022026
:100CA000CDE901010720CDE9031069460448FFF7AB
:100CB0009DFB06B010BD00000044004040380240DB
:100CC00000000240FEE7000070B50D4D002400BF9B
:100CD00004EB840005EB800000F0DBFA641C062CBA
:100CE000F6D30748783000F0D4FA05488C3000F08D
:100CF000D0FA03490348783141621431816270BDF2
:100D0000D80000201000002030B587B014216846BC
:100D1000FFF7EEFA1E480024016841F0040101606B
:100D2000016801F004010591016841F08001016052
:100D3000016801F080010591016841F00101016045
:100D4000016801F001010591016841F002010160B3
:100D50000068104D00F00200059000222021284676
:100D6000FFF70EFC4FF4005000900B48CDE9010452
:100D700069460A48FFF73AFB202000900120CDE9A0
:100D80000104694628460394FFF730FB07B030BDE5
:100D900030380240000002400000211000080240EC
:100DA000FEE77047FFF722BAFFF70EBA00F0F0BA7D
:100DB00030B593B030216846FFF79AFA14210CA899
:100DC000FFF796FA1A480024016841F0805101604B
:100DD000006800F0805011901648016821F44041ED
:100DE00041F4004101600068022500F44040119088
:100DF000012003901020009506950490CDE907404E
:100E00004FF4A870099004200A9007200B906846C0
:100E1000FFF730FD0F20CDE90C05E802CDE90E40CB
:100E200002210CA81094FFF73BFC13B030BD00006A
:100E3000403802400070004002494FF000600860F6
:100E40007047000008ED00E05525054C772602208C
:100E5000257000F0F6F92670022000F0F2F9F6E7AE
:100E6000100000200025054C01261420667000F0BB
:100E7000E8F96570142000F0E4F9F6E710000020AE
:100E80002DE9F041044600680169E26821F440510F
:100E9000114301612169A068E26908436169114356
:100EA00008432168CA6849F20C639A430243CA6046
:100EB00020684169A26921F4407111434161E069F0
:100EC000192764253226B0F5004F354A3549206888
:100ED0004FF0000806D0884201D0904236D1FFF78B
:100EE00089FC35E0884201D0904202D1FFF782FCB4
:100EF00001E0FFF76FFC61684A18A0FB070148EBAF
:100F00000803FFF7ABF90146B0FBF5F00201B1FBB6
:100F1000F5F06FF01803584301EB800006EBC000BA
:100F2000B0FBF5F000F0F80002EB4002B1FBF5F089
:100F3000584301EB800006EBC000B0FBF5F000F079
:100F40000700216810448860BDE8F081FFF742FC8B
:100F500061688B0F8A00A0FB0701FFF77FF901464C
:100F6000B0FBF5F06FF01802504301EB800006EB88
:100F70000010B0FBF5F000F0F002B1FBF5F002EB71
:100F80000012B1FBF5F06FF01803584301EB80003D
:100F900006EB0010B0FBF5F000F00F00D1E7000009
:100FA0000014014000100140FEE70907090E002867
:100FB00004DB00F1E02080F80014704700F00F001F
:100FC00000F1E02080F8141D704702E008C8121FED
:100FD00008C1002AFAD170477047002001E001C122
:100FE000121F002AFBD170472DE9F843214CA0695C
:100FF000401C0090A06100984FF0FF3670B9606A05
:10100000A16A6162A062206A401C2062606A006876
:10101000B8B1606AC068C0684068E0610098E16982
:10102000884211D3DFF850800127606A006850B110
:10103000606A0099C068C5686868814208D2E0614A
:1010400002E0E661EAE7E661BDE8F84300F084B853
:10105000281D00F00DF9286B626807FA00F11143B2
:10106000616000EB800108EB8100291D00F037F979
:10107000DBE7000010000020D80000208AB0282202
:101080000E496846FFF71BF9FFF786FAFFF790FE57
:10109000FFF73AFE0B480A490C2201604FF4E13198
:1010A000416000218160C160C0E904128161C161B9
:1010B000FFF7A2FD00F01CF8FEE70000AC130008EB
:1010C0000044004048000020FEE7FEE710B5031F83
:1010D0004FF080741C601B1F21F001011960191F63
:1010E000024B0B60143940380A6010BDCB10000869
:1010F0003EB5104A012002F19C018DE807004FF433
:101100007A7500232A460CA10D4800F061F80D4CB9
:10111000084A0D49E062343202208DE807000023BE
:101120002A460AA10B4800F053F82063BDE83E4070
:1011300000F08EB8780100205461736B310000001C
:10114000490E000810000020B41100205461736B98
:1011500032000000650E000804494FF0805008601E
:10116000BFF34F8FBFF36F8F7047000004ED00E0B7
:1011700070B50546FFF722F9134CE068401CE060AB
:10118000A068D0B1A068296B006B884200D8A56028
:101190002069401C2061286B012162688140114355
:1011A00061600A4900EB800001EB8000291D00F01E
:1011B00096F8BDE87040FFF70FB9A560E068012818
:1011C000E6D1FFF781FDE3E710000020D800002002
:1011D0002DE9F8430646DDE90904089D4FF0000CAF
:1011E00054B348B3B0461E466FF0030303EB8202CC
:1011F000A061104420F007096F46002022180B5C04
:1012000013770A5C12B1401C1028F7D384F82BC066
:10121000201D00F049F82461062D00D30525324633
:10122000414648462563FFF751FF206007B100940F
:101230002046FFF79DFF01E0CDF800C00098BDE813
:10124000F88310B5FFF790F8BDE81040FFF784BFB2
:1012500010B500F051F805484FF0FF31C161002191
:101260008161BDE8104000F07FB800001000002050
:10127000D0E9013201699A60D0E901235A604860DF
:1012800008B182684A60002202610868401E086056
:10129000704700F108014FF0FF32C0E90112C16050
:1012A000016100210160704700210161704730B584
:1012B0000B685A1C02D000F1080202E0026904E047
:1012C0002246546825689D42FAD953684B6099605C
:1012D0008A60516008610168491C016030BD426844
:1012E0004A6093688B6093685960916008610168F7
:1012F000491C0160704700000EB50020064A0749EE
:101300008DE8070003464FF47A7205A10648FFF7FF
:101310005FFF064948630EBDE00100205421002014
:1013200049444C4500000000C9100008100000208E
:101330000B4A50680B49B0FA80F0C0F11F0000EB77
:10134000800001EB800000F10803416849684160BA
:10135000994201D149684160C868906070470000B7
:1013600010000020D8000020074810B5016841F4A3
:101370007F010160016841F07F4101600349002065
:101380004861FEF711FF10BD20ED00E010000020C5
:1013900010B5BF2080F31188BFF34F8FBFF36F8F5D
:1013A000FFF722FE002080F3118810BD010000002D
:1013B000020000000300000004000000050000001F
:1013C00006000000070000000800000009000000FF
:1013D0000A000000000000000000000001020304F9
:1013E0000607080900000000010203040C140008AD
:1013F0000000002048000000CA0F00085414000834
:1014000048000020B0340000DA0F0008010000009E
:1014100010000000000000000024F40000000000A4
:1014200000000000000000000000000000000000BC
:10143000AAAAAAAA00000000000000000000000004
:10144000000000000000000000000000000000009C
:041450000000000098
:040000050800019559
:00000001FF
